:100000000C9446000C948B000C9465000C946500D5
:100010000C9465000C9465000C9465000C946500CC
:100020000C9465000C9465000C9465000C946500BC
:100030000C9465000C9465000C9465000C946500AC
:100040000C9465000C9465000C9465000C9465009C
:100050000C9465000C9465000C9465000C9465008C
:100060000C9465000C9465000C9465000C9465007C
:100070000C9465000C9465000C9465000C9465006C
:100080000C9465000C9465000C94650011241FBE4F
:10009000CFEFD0E1DEBFCDBF12E0A0E0B1E0E6E7F8
:1000A000FFE000E00BBF02C007900D92A434B1073F
:1000B000D9F722E0A4E4B2E001C01D92AE37B20746
:1000C000E1F70E943C010C94B9070C940000CF9317
:1000D000C82F8A3019F48DE00E9467005D9BFECF27
:1000E000CCB980E090E0CF9108955F9BFECF8CB1BA
:1000F00090E00895109290008FE289B988E18AB962
:10010000E8E7F2E08EE091E09383828380E091E083
:100110009183808308951F920F920FB60F9211243E
:100120008F9381E0809345028F910F900FBE0F90C7
:100130001F901895CF93DF931F92CDB7DEB786E25D
:1001400091E00E94960484E591E00E94960441E0CB
:1001500050E0BE016F5F7F4F80E00E9430028981D6
:100160001F928F9380E891E09F938F930E94820467
:1001700041E050E0BE016F5F7F4F81E00E9430029E
:1001800089811F928F938EE891E09F938F930E94B5
:10019000820441E050E0BE016F5F7F4F82E00E9429
:1001A000300289811F928F938CE991E09F938F9306
:1001B0000E94820441E050E0BE016F5F7F4F84E007
:1001C0000E94300289811F928F938DEA91E09F9364
:1001D0008F930E94820441E050E0BE016F5F7F4F29
:1001E00085E00E94300289811F928F938FEB91E00E
:1001F0009F938F930E94820441E050E0BE016F5FA5
:100200007F4F86E00E94300289811F928F938DEC90
:1002100091E09F938F930E94820441E050E0BE01E1
:100220006F5F7F4F87E00E94300289811F928F931A
:100230008DED91E09F938F930E94820441E050E006
:10024000BE016F5F7F4F8DE10E94300289811F9256
:100250008F938BEE91E09F938F930E9482040FB651
:10026000F894DEBF0FBECDBF8AEF91E00E949604E6
:100270000F90DF91CF9108950E947A000E94320280
:100280000E949A000E9454030E94A6010E941B042F
:10029000EC0107E212E0809145028823E1F30E941D
:1002A000D30161E081E00E94C801DF93CF931F93E7
:1002B0000F930E94F1012FEF8FE796E121508040CC
:1002C0009040E1F700C000000F900F900F900F904A
:1002D000E2CF8BB3806F8BBB8AB38F708ABBDA9A05
:1002E000DA9A29B3DA98DA9ADA9A99B3DA98207F07
:1002F000892F82958F70822B08952BB32F70982FA2
:10030000907F922B9BBBDA9ADA9830E1839FC001F1
:100310001124822B8BBBDA9ADA9808958BBBDA9A78
:10032000DA980895CF93DF931F92CDB7DEB7D898B0
:10033000D99A0E9469018983898187FDF8CFD9986C
:100340008FEF8ABB0F90DF91CF9108958FEF8ABB1B
:100350008ABBD898D998DA98DA9ADD9ADA980E9406
:10036000920188E20E947D010E949201D8988EE05D
:100370000E947D010E949201D89886E00E947D0132
:100380000C949201D89882E00E947D010C94920115
:10039000D89890E4899F600D1124862F815C0E947B
:1003A0007D010C949201D89881E00E947D010C940B
:1003B0009201D89A0E947D010C9492010F931F9391
:1003C000CF938C01C0E0F801EC0FF11D80818823F0
:1003D00021F00E94D901CF5FF6CFCF911F910F91ED
:1003E0000895CF93DF93CDB7DEB79E012B5F3F4FCC
:1003F000F901419151919F0161E170E086E492E041
:100400000E94C60486E492E00E94DE01DF91CF9153
:100410000895DF92EF92FF920F931F93CF93DF9394
:10042000D62EE72E8A011C980E947604F82ECD2D38
:10043000DE2D0C0F1D1FC017D10729F088810E94E7
:1004400076048993F8CF1C9A8F2DDF91CF911F915D
:100450000F91FF90EF90DF90089580620C94090255
:100460000C9409020F931F93CF93DF931F92CDB784
:10047000DEB7F894EAE6F0E080818260808389B795
:10048000816089BF7894139A149A1C9A1B980E94D1
:1004900053042FEF8FE392E0215080409040E1F72A
:1004A00000C000000FE30093770241E050E067E7EF
:1004B00072E080E00E942D021092770241E050E04D
:1004C00067E772E081E00E942D0280EF809377025F
:1004D00041E050E067E772E084E00E942D02109254
:1004E000770241E050E067E772E082E00E942D026F
:1004F00084E78093770241E050E067E772E085E0AF
:100500000E942D028EE08093770241E050E067E781
:1005100072E086E00E942D0210E71093770241E01E
:1005200050E067E772E087E00E942D0200937702B7
:1005300041E050E067E772E08CE10E942D0284E028
:100540008093770241E050E067E772E08DE10E941E
:100550002D02198340E050E060E070E082EE0E94DE
:100560002D0240E050E060E070E081EE0E942D023C
:1005700045E050E061E271E08AE00E942D0245E032
:1005800050E06CE171E080E10E942D0241E050E01A
:10059000BE016F5F7F4F82E00E942D0289818160E2
:1005A000898341E050E0BE016F5F7F4F82E00E948F
:1005B0002D020F90DF91CF911F910F9108951C98FC
:1005C00088EA0E94650481E40E9465041C9A0895EB
:1005D0001F93CF93DF931F92CDB7DEB7182F41E063
:1005E00050E0BE016F5F7F4F80E00E943002133009
:1005F00099F140F41130F1F0123009F050C08981C6
:100600008D7F40C0153009F447C0D0F1163009F095
:1006100046C089818E7F8093770241E050E067E792
:1006200072E080E00E942D021B9A84E191E0019724
:10063000F1F734C0898181FD32C0826080937702F6
:1006400041E050E067E772E080E00E942D0286E61C
:100650009EE00197F1F722C0898181608093770243
:1006600041E050E067E772E080E00E942D0280E701
:100670008093770241E050E067E772E087E009C0CD
:1006800089818E7F8093770241E050E067E772E0D6
:1006900080E00E942D0203C01B9801C000000F9053
:1006A000DF91CF911F91089583E00E94E8021B9A89
:1006B00084E191E00197F1F700000895BF92CF9295
:1006C000DF92EF92FF920F931F93CF93DF93CDB7FB
:1006D000DEB7A0970FB6F894DEBF0FBECDBF7C018A
:1006E00080E2B82ECE0101966C01FC018B2D119297
:1006F0008A95E9F7B701C6010E947B04F7010190D2
:100700000020E9F731978F010E191F0984E00E943C
:10071000E80240E050E060E070E082EE0E942D02CE
:1007200040E050E060E070E081EE0E942D02B09267
:10073000770241E050E067E772E087E00E942D0217
:1007400041E050E067E772E080E00E943002809173
:10075000770280648093770241E050E067E772E0BF
:1007600080E00E942D021C9880EB0E94650400230B
:1007700039F0F70181917F010E9465040150F7CFA4
:1007800080E00E9465041C9A1B9AF5E2FA95F1F745
:100790001B9841E050E067E772E087E00E9430027A
:1007A0008091770285FFF5CFDF92CF928AE292E0C7
:1007B0009F938F930E94820441E050E067E772E0CC
:1007C00080E00E943002809177028F7B80937702D5
:1007D00041E050E067E772E080E00E942D020E9455
:1007E00054030F900F900F900F9081E0A0960FB6DA
:1007F000F894DEBF0FBECDBFDF91CF911F910F9157
:10080000FF90EF90DF90CF90BF900895CF93DF934C
:100810001F92CDB7DEB741E050E0BE016F5F7F4F62
:1008200087E10E94300289818095817090E00F906D
:10083000DF91CF91089580E2E7E5F2E0DF011D92BC
:100840008A95E9F741E050E067E772E080E60E94B0
:10085000300240917702442341F050E04F5F5F4FF8
:1008600067E572E081E60E940902809157028823C1
:1008700069F080E48093770241E050E067E772E03E
:1008800087E00E942D0287E592E0089580E480933E
:10089000770241E050E067E772E087E00E942D02B6
:1008A0008CE392E00895BB9887B3866087BB80E5B0
:1008B0008DB9709A0895615038F0FC012191CF01F3
:1008C0002FB9779BFECFF7CF08958FB9779BFECFD7
:1008D0000895FB01415048F0DC012D91CD012FB965
:1008E000779BFECF2FB12193F5CF08958FB9779BDA
:1008F000FECF8FB10895FB01DC0101900D92002025
:10090000E1F70895CF93DF93CDB7DEB7AE014B5F2C
:100910005F4FFA0161917191AF0180917A029091DC
:100920007B020E94FF04DF91CF9108950F931F93E4
:10093000CF93DF93E0917A02F0917B02238121FF34
:100940001BC08C01D0E0C0E0F80181918F01609163
:100950007A0270917B02DB011896ED91FC91199758
:10096000882331F00995892B79F3DFEFCFEFECCFB6
:100970008AE00995892B19F08FEF9FEF02C08D2F28
:100980009C2FDF91CF911F910F9108950F931F938B
:10099000CF93DF93CDB7DEB72E970FB6F894DEBFB7
:1009A0000FBECDBF8C01FA0186E08C831A830983C8
:1009B00077FF02C060E070E8CB0101979E838D83D2
:1009C000A901BF01CE0101960E94FF044D815E8105
:1009D00057FD0AC02F813885421753070CF49A013E
:1009E000F801E20FF31F10822E960FB6F894DEBFC7
:1009F0000FBECDBFDF91CF911F910F9108952F9220
:100A00003F924F925F926F927F928F929F92AF929E
:100A1000BF92CF92DF92EF92FF920F931F93CF93EB
:100A2000DF93CDB7DEB72B970FB6F894DEBF0FBEBE
:100A3000CDBF6C017B018A01FC0117821682838184
:100A400081FFCCC1CE0101963C01F6019381F701F3
:100A500093FD859193FF81917F01882309F4BAC1A9
:100A6000853239F493FD859193FF81917F01853221
:100A700029F4B60190E00E941F07E7CF912C212CAA
:100A8000312CFFE1F315D8F08B3279F038F4803255
:100A900079F08332A1F4232D20611DC08D3261F0E5
:100AA000803369F4232D216016C0832D8260382E97
:100AB000E32DE4603E2E2AC0F32DF8601DC037FC04
:100AC0002DC020ED280F2A3040F08E32B9F436FCCC
:100AD00081C1232D2064322E19C036FE06C08AE063
:100AE000989E200D1124922E11C0EAE02E9E200D1A
:100AF0001124222EF32DF0623F2E08C08C3621F4F3
:100B0000832D8068382E02C0883641F4F70193FDAA
:100B1000859193FF81917F018111B3CF982F9F7DA4
:100B20009554933028F40C5F1F4F9FE399830DC0B9
:100B3000833631F0833771F0833509F059C021C015
:100B4000F801808189830E5F1F4F88248394912C44
:100B5000530113C02801F2E04F0E511CF801A08090
:100B6000B18036FE03C0692D70E002C06FEF7FEFE9
:100B7000C5010E9414074C018201F32DFF773F2E1F
:100B800016C0280122E0420E511CF801A080B1805D
:100B900036FE03C0692D70E002C06FEF7FEFC50124
:100BA0000E9409074C01F32DF0683F2E820133FCAF
:100BB0001BC0822D90E088169906B0F4B60180E241
:100BC00090E00E941F072A94F4CFF50137FC85912D
:100BD00037FE81915F01B60190E00E941F0721104E
:100BE0002A9421E0821A91088114910471F7E8C0D7
:100BF000843611F0893641F5F80137FE07C060816F
:100C00007181828193810C5F1F4F08C06081718167
:100C1000072E000C880B990B0E5F1F4FF32DFF76EC
:100C20003F2E97FF09C090958095709561957F4FF5
:100C30008F4F9F4FF0683F2E2AE030E0A3010E94C3
:100C40005B07882E861845C0853731F4232D2F7E0B
:100C5000B22E2AE030E025C0932D997FB92E8F3631
:100C6000C1F018F4883579F0B5C0803719F08837AD
:100C700021F0B0C0E92FE061BE2EB4FE0DC0FB2D07
:100C8000F460BF2E09C034FE0AC0292F2660B22EA0
:100C900006C028E030E005C020E130E002C020E1DD
:100CA00032E0F801B7FE07C06081718182819381D3
:100CB0000C5F1F4F06C06081718180E090E00E5F85
:100CC0001F4FA3010E945B07882E8618FB2DFF771C
:100CD0003F2E36FE0DC0232D2E7FA22E891458F4F0
:100CE00034FE0BC032FC09C0832D8E7EA82E05C0B9
:100CF000B82CA32C03C0B82C01C0B92CA4FE0FC083
:100D0000FE01E80DF11D8081803321F49A2D997E3A
:100D1000A92E09C0A2FE06C0B394B39404C08A2DC4
:100D2000867809F0B394A3FC11C0A0FE06C0B214EB
:100D300088F4280C922C9B180EC0B21460F4B601F3
:100D400080E290E00E941F07B394F7CFB21418F42A
:100D50002B1802C0982C212CA4FE10C0B60180E3F1
:100D600090E00E941F07A2FE17C0A1FC03C088E705
:100D700090E002C088E590E0B6010CC08A2D86782C
:100D800059F0A1FE02C08BE201C080E2A7FC8DE217
:100D9000B60190E00E941F07891438F4B60180E381
:100DA00090E00E941F079A94F7CF8A94F301E80D10
:100DB000F11D8081B60190E00E941F078110F5CFE0
:100DC000222009F442CEB60180E290E00E941F0783
:100DD0002A94F6CFF6018681978102C08FEF9FEFAC
:100DE0002B960FB6F894DEBF0FBECDBFDF91CF912B
:100DF0001F910F91FF90EF90DF90CF90BF90AF9039
:100E00009F908F907F906F905F904F903F902F902A
:100E10000895FC010590615070400110D8F780954D
:100E200090958E0F9F1F0895FC01615070400190B6
:100E30000110D8F7809590958E0F9F1F08950F93FE
:100E40001F93CF93DF93FB01238121FD03C08FEF1D
:100E50009FEF2CC022FF16C0468157812481358127
:100E60004217530744F4A081B1819D012F5F3F4F8A
:100E7000318320838C93268137812F5F3F4F3783C7
:100E8000268314C08B01EC01FB010084F185E02D69
:100E90000995892BE1F6D80116968D919C911797AB
:100EA000019617969C938E931697CE01DF91CF9162
:100EB0001F910F910895FA01AA27283051F120318E
:100EC00081F1E8946F936E7F6E5F7F4F8F4F9F4FDE
:100ED000AF4FB1E03ED0B4E03CD0670F781F891F20
:100EE0009A1FA11D680F791F8A1F911DA11D6A0FEE
:100EF000711D811D911DA11D20D009F468943F91A1
:100F00002AE0269F11243019305D3193DEF6CF019F
:100F10000895462F4770405D4193B3E00FD0C9F765
:100F2000F6CF462F4F70405D4A3318F0495D31FDD2
:100F30004052419302D0A9F7EACFB4E0A695979525
:100F4000879577956795BA95C9F7009761057105FB
:100F500008959B01AC010A2E069457954795379545
:100F60002795BA95C9F7620F731F841F951FA01D9F
:060F70000895F894FFCF84
:100F760000000001000000000000750000000000F5
:100F8600000200000000670000000000E7E7E7E756
:100F9600E7E7E7E7E7E753746172747570207375E6
:100FA600636365737366756C0A0A206E5246323443
:100FB6004C30312B20636F6E6669677572656420ED
:100FC60061733A002D2D2D2D2D2D2D2D2D2D2D2DF1
:100FD6002D2D2D2D2D2D2D2D2D2D2D2D2D2D2D2D3B
:100FE6002D2D2D2D2D2D2D2D2D2D2D2D2D2D2D0058
:100FF600434F4E4649470909307825780A00454E41
:101006005F4141090909307825780A00454E5F524B
:1010160058414444520909307825780A005345540A
:1010260055505F524554520909307825780A0052C6
:10103600465F4348090909307825780A0052465F19
:1010460053455455500909307825780A00535441C0
:101056005455530909307825780A004645415455B8
:1010660052450909307825780A002D2D2D2D2D2D74
:101076002D2D2D2D2D2D2D2D2D2D2D2D2D2D2D2D9A
:101086002D2D2D2D2D2D2D2D2D2D2D2D2D2D2D2D8A
:101096002D2D2D2D2D0A002564004D657373616776
:1010A600652073656E743A2025730A006661696C63
:0410B600656400006D
:00000001FF
