:100000000C94C7000C94B2040C94E6000C94E60027
:100010000C94E6000C94E6000C94E6000C94E600C8
:100020000C94E6000C94E6000C94E6000C94E600B8
:100030000C94E6000C94E6000C94E6000C94E600A8
:100040000C94E6000C94E6000C94E6000C94E60098
:100050000C94E6000C94E6000C94E6000C94E60088
:100060000C94E6000C94E6000C94E6000C94E60078
:100070000C94E6000C94E6000C94E6000C94E60068
:100080000C94E6000C94E6000C94E6006E616E00A1
:10009000696E660000407A10F35A00A0724E18098B
:1000A0000010A5D4E80000E87648170000E40B54DF
:1000B000020000CA9A3B000000E1F50500008096AE
:1000C0009800000040420F000000A08601000000E0
:1000D000102700000000E80300000000640000009A
:1000E00000000A00000000000100000000002C7663
:1000F000D888DC674F0823DFC1DFAE59E1B1B7967E
:10010000E5E3E453C63AE651997696E8E6C28426DA
:10011000EB898C9B62ED407C6FFCEFBC9C9F40F2B6
:10012000BAA56FA5F490055A2AF75C936B6CF96732
:100130006DC11BFCE0E40D47FEF520E6B500D0EDF7
:10014000902E0300943577050080841E080000205F
:100150004E0A000000C80C333333330F986E1283FD
:100160001141EF8D2114893BE65516CFFEE6DB18D1
:10017000D1844B381BF77C1D901DA4BBE424203296
:1001800084725E228100C9F124ECA1E53D2711248F
:100190001FBECFEFD0E1DEBFCDBF12E0A0E0B1E0E7
:1001A000ECE7F5E100E00BBF02C007900D92A83626
:1001B000B107D9F722E0A8E6B2E001C01D92A23A49
:1001C000B207E1F70E946B050C94BC0A0C94000086
:1001D0002F923F924F925F926F927F928F929F9257
:1001E000AF92BF92CF92DF92EF92FF920F931F9345
:1001F000CF93DF93CDB7DEB760970FB6F894DEBF2D
:100200000FBECDBF7C011B016A01FC011782168263
:10021000838181FF44C39E012F5F3F4F3901F70166
:100220009381F10193FD859193FF81911F018823B3
:1002300009F431C3853239F493FD859193FF81919F
:100240001F01853239F4B70190E00E94A5095601DB
:100250006501E5CF10E0512C912CFFE1F915D8F0A4
:100260008B3279F038F4803279F08332A1F4F92DB1
:10027000F0612EC08D3261F0803369F4292D216048
:100280002DC0392D3260932E892D8460982E2AC07E
:10029000E92DE86015C097FC2DC020ED280F2A300D
:1002A00088F496FE06C03AE0139F200D1124122F09
:1002B00019C08AE0589E200D1124522EE92DE062CB
:1002C0009E2E10C08E3231F496FCE5C2F92DF064FA
:1002D0009F2E08C08C3621F4292D2068922E02C052
:1002E000883641F4F10193FD859193FF81911F01BF
:1002F0008111B3CF9BEB980F933020F4992D90612F
:10030000805E07C09BE9980F933008F066C1992D75
:100310009F7E96FF16E09F73992E853619F49064A0
:10032000992E08C0863621F4392F3068932E02C0EA
:100330001111115097FE07C01C3350F4442443940C
:10034000410E27E00BC0183038F027E017E005C059
:1003500027E09CE3492E02C0212F412C560184E066
:10036000A80EB11CF6016081718182819381042DF8
:10037000A3010E94B0086C01F981FC87F0FF02C064
:10038000F3FF06C091FC06C092FE06C000E205C065
:100390000DE203C00BE201C000E08C858C7019F007
:1003A00001115AC29BC297FE10C04C0CFC85F4FF91
:1003B00004C08A81813309F44A94141474F528E046
:1003C000241578F588E0482E2CC096FC2AC0812F91
:1003D00090E08C159D059CF03CEFC3163FEFD306D3
:1003E00074F0892D8068982E0AC0E2E0F0E0EC0FEE
:1003F000FD1FE10FF11D8081803319F4115011119F
:10040000F4CF97FE0EC044244394410E812F90E018
:10041000C816D9062CF41C1904C04424439401C006
:1004200010E097FE06C01C141D0434F4C6010196AA
:1004300005C085E090E002C081E090E001110196E6
:10044000112331F0212F30E02F5F3F4F820F931F98
:10045000252D30E08217930714F4581A01C0512C4F
:10046000892D897049F4552039F0B70180E290E078
:100470000E94A5095A94F7CF002329F0B701802FD5
:1004800090E00E94A50993FC09C0552039F0B701FE
:1004900080E390E00E94A5095A94F7CF97FE4CC0E4
:1004A0004601D7FE02C0812C912CC60188199909FA
:1004B000F301E80FF91FFE87ED8796012419310932
:1004C000388B2F87012F10E01195019511093FEF0F
:1004D0008316930629F4B7018EE290E00E94A509E5
:1004E000C814D9044CF08F8598898815990524F48F
:1004F000ED85FE85818101C080E3F1E08F1A9108CE
:100500002D853E852F5F3F4F3E872D8780169106B4
:100510002CF0B70190E00E94A509D9CFC814D904E6
:1005200041F49A81963320F4953319F43C8534FFD5
:1005300081E3B70190E04EC08A81813319F09C8538
:100540009F7E9C87B70190E00E94A509111105C00C
:1005500094FC18C085E690E017C0B7018EE290E0E9
:100560000E94A5091E5F82E001E0080FF301E80F79
:10057000F11D8081B70190E00E94A509802F011331
:10058000F3CFE6CF85E490E0B7010E94A509D7FC40
:1005900006C0C114D10441F4EC85E4FF05C0D19438
:1005A000C194D1088DE201C08BE2B70190E00E94B6
:1005B000A50980E32AE0C216D1042CF08F5FFAE08F
:1005C000CF1AD108F7CFB70190E00E94A509B70173
:1005D000C601C0960E94A50954C1833631F0833705
:1005E00079F0833509F056C020C0560132E0A30EE1
:1005F000B11CF6018081898301E010E0630112C023
:100600005601F2E0AF0EB11CF601C080D18096FE1B
:1006100003C0612F70E002C06FEF7FEFC6010E9440
:100620009A098C01F92DFF7714C0560122E0A20E21
:10063000B11CF601C080D18096FE03C0612F70E02E
:1006400002C06FEF7FEFC6010E9488098C01F92D6F
:10065000F0689F2EF3FD1AC0852D90E0081719074A
:10066000A8F4B70180E290E00E94A5095A94F4CF63
:10067000F60197FC859197FE81916F01B70190E09B
:100680000E94A50951105A94015011090115110534
:1006900079F7F7C0843611F0893661F5560197FE77
:1006A00009C024E0A20EB11CF60160817181828133
:1006B00093810AC0F2E0AF0EB11CF6016081718136
:1006C000072E000C880B990BF92DFF769F2E97FFB4
:1006D00009C090958095709561957F4F8F4F9F4F82
:1006E000F0689F2E2AE030E0A3010E945E0AC82E27
:1006F000C6183FC0092D853721F40F7E2AE030E06F
:100700001DC0097F8F3691F018F4883559F0C3C0A9
:10071000803719F0883711F0BEC0006104FF09C0AE
:10072000046007C094FE08C0066006C028E030E000
:1007300005C020E130E002C020E132E0560107FFB1
:1007400009C084E0A80EB11CF6016081718182812C
:10075000938108C0F2E0AF0EB11CF6016081718197
:1007600080E090E0A3010E945E0AC82EC6180F77B1
:10077000902E96FE0BC0092D0E7FC11650F494FEEC
:100780000AC092FC08C0092D0E7E05C0DC2C092D84
:1007900003C0DC2C01C0D12E04FF0DC0FE01EC0D06
:1007A000F11D8081803311F4097E09C002FF06C06B
:1007B000D394D39404C0802F867809F0D39403FD9A
:1007C00011C000FF06C01C2DD51480F4150D1D1995
:1007D0000DC0D51458F4B70180E290E00E94A5093D
:1007E000D394F7CFD51410F45D1801C0512C04FF39
:1007F00010C0B70180E390E00E94A50902FF17C076
:1008000001FD03C088E790E002C088E590E0B701F1
:100810000CC0802F867859F001FF02C08BE201C026
:1008200080E207FD8DE2B70190E00E94A509C116A4
:1008300038F4B70180E390E00E94A5091150F7CF8A
:10084000CA94F301EC0DF11D8081B70190E00E9484
:10085000A509C110F5CF15C0F4E0F51560F584E0E9
:10086000581A93FE1FC0011127C02C8523FF2AC0F0
:100870000CE810E0392D3071932EF801849181112C
:1008800024C0552009F4E4CCB70180E290E00E9436
:10089000A5095A94F6CFF7018681978126C08FEF7C
:1008A0009FEF23C0B70180E290E00E94A5095A940F
:1008B0005110F8CFD8CF512CB701802F90E00E9473
:1008C000A509D3CF00E910E0D5CF91108052B70130
:1008D00090E00E94A5090F5F1F4FCFCF23E02515A1
:1008E00010F483E0BDCF512CC0CF60960FB6F894C2
:1008F000DEBF0FBECDBFDF91CF911F910F91FF9053
:10090000EF90DF90CF90BF90AF909F908F907F90AF
:100910006F905F904F903F902F900895CF93C82F86
:100920008A3019F48DE00E948E045D9BFECFCCB915
:1009300080E090E0CF9108955F9BFECF8CB190E076
:1009400008951092900083E089B988E18AB9ECE9B2
:10095000F2E08EE091E09383828380E091E09183E6
:10096000808308951F920F920FB60F9211248F93D8
:100970009F9381E08093690298B380E4892788BBC4
:100980009F918F910F900FBE0F901F901895BE9A58
:100990000895CF93DF931F92CDB7DEB786E291E043
:1009A0000E94F50984E591E00E94F50941E050E0DC
:1009B000BE016F5F7F4F80E00E94650689811F92B4
:1009C0008F9380E891E09F938F930E94E10941E02B
:1009D00050E0BE016F5F7F4F81E00E946506898114
:1009E0001F928F938EE891E09F938F930E94E1096D
:1009F00041E050E0BE016F5F7F4F82E00E946506DC
:100A000089811F928F938CE991E09F938F930E942D
:100A1000E10941E050E0BE016F5F7F4F84E00E943A
:100A2000650689811F928F938DEA91E09F938F9342
:100A30000E94E10941E050E0BE016F5F7F4F85E019
:100A40000E94650689811F928F938FEB91E09F939F
:100A50008F930E94E10941E050E0BE016F5F7F4F3C
:100A600086E00E94650689811F928F938DEC91E04C
:100A70009F938F930E94E10941E050E0BE016F5FB8
:100A80007F4F87E00E94650689811F928F938DEDCD
:100A900091E09F938F930E94E10941E050E0BE01F5
:100AA0006F5F7F4F8DE10E94650689811F928F9352
:100AB0008BEE91E09F938F930E94E1090FB6F8941B
:100AC000DEBF0FBECDBF8AEF91E00E94F5090F9007
:100AD000DF91CF9108950E94C7040E94DB050E9418
:100AE000A1040E94080661E081E00E94FD0588E201
:100AF00092E09F938F930E94260687E292E00E94E5
:100B0000F5090E9467060E94C9040E9489070F9098
:100B10000F90C9E3D2E0809169028823E1F310923B
:100B200069020E9450089F938F93DF93CF930E9496
:100B3000E1090F900F900F900F90EDCF8BB3806F66
:100B40008BBB8AB38F708ABBDA9ADA9A29B3DA98A8
:100B5000DA9ADA9A99B3DA98207F892F82958F7082
:100B6000822B08952BB32F70982F907F922B9BBBD5
:100B7000DA9ADA9830E1839FC0011124822B8BBB73
:100B8000DA9ADA9808958BBBDA9ADA980895CF93B7
:100B9000DF931F92CDB7DEB7D898D99A0E949E05F1
:100BA0008983898187FDF8CFD9988FEF8ABB0F9011
:100BB000DF91CF9108958FEF8ABB8ABBD898D998DF
:100BC000DA98DA9ADD9ADA980E94C70588E20E94DC
:100BD000B2050E94C705D8988EE00E94B2050E9417
:100BE000C705D89886E00E94B2050C94C705D8982E
:100BF00082E00E94B2050C94C705D89890E4899FC2
:100C0000600D1124862F815C0E94B2050C94C705EB
:100C1000D89881E00E94B2050C94C705D89A0E942A
:100C2000B2050C94C7050F931F93CF938C01C0E0BE
:100C3000F801EC0FF11D8081882321F00E940E063F
:100C4000CF5FF6CFCF911F910F910895CF93DF9390
:100C5000CDB7DEB79E012B5F3F4FF9014191519116
:100C60009F0161E170E08AE692E00E94250A8AE62F
:100C700092E00E941306DF91CF910895DF92EF92E8
:100C8000FF920F931F93CF93DF93D62EE72E8A0107
:100C9000C0980E94AB08F82ECD2DDE2D0C0F1D1F25
:100CA000C017D10729F088810E94AB088993F8CF3B
:100CB000C09A8F2DDF91CF911F910F91FF90EF90F0
:100CC000DF90089580620C943E060C943E060F93CC
:100CD0001F93CF93DF931F92CDB7DEB7F894EAE668
:100CE000F0E080818260808389B7816089BF7894D9
:100CF000139AB89AC09A1B980E9488082FEF8FE326
:100D000092E0215080409040E1F700C000000FE3E6
:100D100000939B0241E050E06BE972E080E00E94AA
:100D2000620610929B0241E050E06BE972E081E0C4
:100D30000E94620680EF80939B0241E050E06BE9E5
:100D400072E084E00E94620610929B0241E050E053
:100D50006BE972E082E00E94620684E780939B0266
:100D600041E050E06BE972E085E00E9462068EE0AF
:100D700080939B0241E050E06BE972E086E00E94C4
:100D8000620610E710939B0241E050E06BE972E0CD
:100D900087E00E94620600939B0241E050E06BE90D
:100DA00072E08CE10E94620684E080939B0241E045
:100DB00050E06BE972E08DE10E946206198340E029
:100DC00050E060E070E082EE0E94620640E050E099
:100DD00060E070E081EE0E94620645E050E061E272
:100DE00071E08AE00E94620645E050E06CE171E04B
:100DF00080E10E94620641E050E0BE016F5F7F4FDC
:100E000082E00E94620689818160898341E050E02E
:100E1000BE016F5F7F4F82E00E9462060F90DF91FC
:100E2000CF911F910F910895C09888EA0E949A0867
:100E300081E40E949A08C09A08951F93CF93DF938C
:100E40001F92CDB7DEB7182F41E050E0BE016F5FB3
:100E50007F4F80E00E946506133099F140F4113015
:100E6000F1F0123009F050C089818D7F40C01530FB
:100E700009F447C0D0F1163009F046C089818E7F51
:100E800080939B0241E050E06BE972E080E00E94B9
:100E900062061B9A84E191E00197F1F734C08981E1
:100EA00081FD32C0826080939B0241E050E06BE99B
:100EB00072E080E00E94620686E69EE00197F1F70C
:100EC00022C08981816080939B0241E050E06BE900
:100ED00072E080E00E94620680E780939B0241E01E
:100EE00050E06BE972E087E009C089818E7F8093D2
:100EF0009B0241E050E06BE972E080E00E946206F4
:100F000003C01B9801C000000F90DF91CF911F918B
:100F1000089583E00E941D071B9A84E191E00197E8
:100F2000F1F700000895BF92CF92DF92EF92FF9207
:100F30000F931F93CF93DF93CDB7DEB7A0970FB674
:100F4000F894DEBF0FBECDBF7C0180E2B82ECE018B
:100F500001966C01FC018B2D11928A95E9F7B7017E
:100F6000C6010E949309F70101900020E9F731972B
:100F70008F010E191F0984E00E941D0740E050E018
:100F800060E070E082EE0E94620640E050E060E0C7
:100F900070E081EE0E946206B0929B0241E050E058
:100FA0006BE972E087E00E94620641E050E06BE985
:100FB00072E080E00E94650680919B0280648093CD
:100FC0009B0241E050E06BE972E080E00E94620623
:100FD000C09880EB0E949A08002339F0F7018191B4
:100FE0007F010E949A080150F7CF80E00E949A0882
:100FF000C09A1B9AF5E2FA95F1F71B9841E050E090
:101000006BE972E087E00E94650680919B0285FF94
:10101000F5CFDF92CF928FE492E09F938F930E945F
:10102000E10941E050E06BE972E080E00E94650672
:1010300080919B028F7B80939B0241E050E06BE9A3
:1010400072E080E00E9462060E9489070F900F9074
:101050000F900F9081E0A0960FB6F894DEBF0FBE00
:10106000CDBFDF91CF911F910F91FF90EF90DF9057
:10107000CF90BF900895CF93DF931F92CDB7DEB787
:1010800041E050E0BE016F5F7F4F87E10E9465063F
:1010900089818095817090E00F90DF91CF910895C4
:1010A00080E2EBE7F2E0DF011D928A95E9F741E08B
:1010B00050E06BE972E080E60E94650640919B0279
:1010C000442341F050E04F5F5F4F6BE772E081E6F1
:1010D0000E943E0680917B02882369F080E4809321
:1010E0009B0241E050E06BE972E087E00E946206FB
:1010F0008BE792E0089580E480939B0241E050E00A
:101100006BE972E087E00E94620681E692E0089552
:10111000BB9887B3866087BB80E58DB9709A0895C8
:10112000615038F0FC012191CF012FB9779BFECFA0
:10113000F7CF08958FB9779BFECF0895FB014150FB
:1011400048F0DC012D91CD012FB9779BFECF2FB157
:101150002193F5CF08958FB9779BFECF8FB1089576
:10116000283008F027E03327DA01990F311D87FD79
:10117000916000966105710539F432602E5F3D93F0
:1011800030E32A95E1F708959F3F30F080387105EC
:10119000610509F03C5F3C5F3D93913008F0806849
:1011A000911DDF93CF931F930F93FF92EF92192F0F
:1011B000987F9695E92F96959695E90FFF27E2512E
:1011C000FF4F99273327EE24FF24A701E70105905D
:1011D0000894079428F4360FE71EF81E491F511D86
:1011E000660F771F881F991F0694A1F70590079433
:1011F00028F4E70EF81E491F561FC11D770F881FE0
:10120000991F661F0694A1F70590079428F4F80E1D
:10121000491F561FC71FD11D880F991F661F771FB3
:101220000694A1F70590079420F4490F561FC71F95
:10123000D81F990F661F771F881F0694A9F78491FE
:101240001095177041F0D695C79557954795F79427
:10125000E7941A95C1F7E4E9F0E0689415901591C8
:1012600035916591959105907FE27395E118F10AAA
:10127000430B560BC90BD009C0F7E10CF11E431FFD
:10128000561FC91FD01D7EF4703311F48A95E6CF26
:10129000E894015030F0080F0AF40027021708F410
:1012A000202F2395022F7A3328F079E37D932A9516
:1012B000E9F710C07D932A9589F60694979567956E
:1012C000379517951794E118F10A430B560BC90B84
:1012D000D00998F023957E9173957A3308F070E3E6
:1012E0007C932013B8F77E9170617D9330F08395E5
:1012F00071E37D9370E32A95E1F71124EF90FF905D
:101300000F911F91CF91DF91992787FD90950895B7
:10131000FC010590615070400110D8F780959095C0
:101320008E0F9F1F0895FB01DC0101900D9200209C
:10133000E1F70895FC016150704001900110D8F769
:10134000809590958E0F9F1F08950F931F93CF93B5
:10135000DF93FB01238121FD03C08FEF9FEF2CC0A2
:1013600022FF16C0468157812481358142175307D9
:1013700044F4A081B1819D012F5F3F4F31832083D1
:101380008C93268137812F5F3F4F3783268314C08C
:101390008B01EC01FB010084F185E02D0995892B7F
:1013A000E1F6D80116968D919C91179701961796A4
:1013B0009C938E931697CE01DF91CF911F910F9141
:1013C0000895CF93DF93CDB7DEB7AE014B5F5F4F8C
:1013D000FA0161917191AF0180919E0290919F02FB
:1013E0000E94E800DF91CF9108950F931F93CF9350
:1013F000DF93E0919E02F0919F02238121FF1BC0A9
:101400008C01D0E0C0E0F80181918F0160919E02D3
:1014100070919F02DB011896ED91FC91199788233A
:1014200031F00995892B79F3DFEFCFEFECCF8AE02C
:101430000995892B19F08FEF9FEF02C08D2F9C2FFC
:10144000DF91CF911F910F9108950F931F93CF9329
:10145000DF93CDB7DEB72E970FB6F894DEBF0FBE81
:10146000CDBF8C01FA0186E08C831A83098377FF54
:1014700002C060E070E8CB0101979E838D83A901D3
:10148000BF01CE0101960E94E8004D815E8157FDAB
:101490000AC02F813885421753070CF49A01F801CE
:1014A000E20FF31F10822E960FB6F894DEBF0FBE28
:1014B000CDBFDF91CF911F910F910895FA01AA2717
:1014C000283051F1203181F1E8946F936E7F6E5F87
:1014D0007F4F8F4F9F4FAF4FB1E03ED0B4E03CD035
:1014E000670F781F891F9A1FA11D680F791F8A1F18
:1014F000911DA11D6A0F711D811D911DA11D20D07F
:1015000009F468943F912AE0269F11243019305D38
:101510003193DEF6CF010895462F4770405D419329
:10152000B3E00FD0C9F7F6CF462F4F70405D4A3376
:1015300018F0495D31FD4052419302D0A9F7EACF3E
:10154000B4E0A6959795879577956795BA95C9F76D
:1015500000976105710508959B01AC010A2E069460
:101560005795479537952795BA95C9F7620F731F19
:0C157000841F951FA01D0895F894FFCF64
:10157C00000000010000000000009C0400000000BE
:10158C000002000000008E0400000000E7E7E7E71F
:10159C00E7E7E7E7E7E753746172747570207375DA
:1015AC00636365737366756C0A0A206E5246323437
:1015BC004C30312B20636F6E6669677572656420E1
:1015CC0061733A002D2D2D2D2D2D2D2D2D2D2D2DE5
:1015DC002D2D2D2D2D2D2D2D2D2D2D2D2D2D2D2D2F
:1015EC002D2D2D2D2D2D2D2D2D2D2D2D2D2D2D004C
:1015FC00434F4E4649470909307825780A00454E35
:10160C005F4141090909307825780A00454E5F523F
:10161C0058414444520909307825780A00534554FE
:10162C0055505F524554520909307825780A0052BA
:10163C00465F4348090909307825780A0052465F0D
:10164C0053455455500909307825780A00535441B4
:10165C005455530909307825780A004645415455AC
:10166C0052450909307825780A002D2D2D2D2D2D68
:10167C002D2D2D2D2D2D2D2D2D2D2D2D2D2D2D2D8E
:10168C002D2D2D2D2D2D2D2D2D2D2D2D2D2D2D2D7E
:10169C002D2D2D2D2D0A000A53746172742054586F
:1016AC002070726F6772616D007265636569766533
:1016BC0064206D6573736167653A2025730A004D6C
:1016CC006573736167652073656E743A2025730AC0
:0816DC00006661696C656400A1
:00000001FF
